:2000000000400020B1C6000001C9011001C9011001C9011001C9011001C9011001C90110E7
:1C00200001C9011001C9011001C9011001C9011001C9011001C901103FC9011089
:20003C002DE9F04FB04C04F108012046ADF1340D0CF006F804F128060021304600F058FB19
:20005C00AA4904F1A00541F2883201232846E6600CF0C2F94FF0804000210BF0A5FBA44ECE
:20007C001F22062360603146102003F013FE502100204FF44872ADF81610DFF878B28DF8B0
:20009C0027008246ADF818204FF47A71ADF81AA00BF10E00ADF81C1004F16202A0F800A07F
:2000BC001E214FF4427003F003F840F20730052104F1180202F0FCFF4FF4447001210DF160
:2000DC00270202F0F5FF40F2113002210DF1160202F0EEFF40F21230022106AA02F0E8FF4A
:2000FC0040F2133002210DF11A0202F0E1FF4FF44570022107AA02F0DBFF04F13400524607
:20011C001523CE490090102003F0C4FD314610200622A02303F0BEFD314610200722A0232D
:20013C0003F0B8FD314610200822A02303F0B2FD314610200922A02303F0ACFDD14601205C
:20015C008DF828000AAE8DF82900CB4D8DF82A9003468DF82C904FF4806200961F46294600
:20017C0010208DF82B7003F095FD0DF1290040F202423B4600902946102003F08BFD0DF1C8
:20019C002A0040F203423B4600902946102003F081FD0DF12B0040F206423B46009029465E
:2001BC00102003F077FD0BA84FF483623B4600902946102003F06EFD0DF004F8B74EB84AA3
:2001DC00B849BC4FA7F11D00326000687160C00854D2B549B1E82C1006F15C00A0E82C109F
:2001FC00B1E82C10A0E82C102EC94FF0010880E82E00FF23AD4DF16EB6F86A20C5F8AB3F1B
:20021C00AB48C5F8FF8F09F0ADF8B06F804742F22B0142F60B3045F8551CC84945F8510CD4
:20023C004FF480760E6045F821AC45F83D8CC5F8B38FC5F8F38FD5F8F30F00F05DFAA7F1FF
:20025C001D03C84A196841F004011960116821F0F05141F03451116000F052FAD7F8FF0F15
:20027C000DF006F916200EF0EFF9162000F04CFA0DF018F90EF083FE0EF08AFEBA49102098
:20029C004FF0FF3203F006FDC14910204FF0FF3203F000FD1020C14EC14BC24A00903146E4
:2002BC000193132303F0F6FCBF480078800008F0D3FEBE4D0146696069B14FF6FF700CF0C6
:2002DC00B9FFBF4B10202A463146009008320193052303F0DFFC04F1800009F083FD5D4644
:2002FC0069782878F1B907E0080200200DEC0000BDD30000E808002004F1100129620DF07F
:20031C0075FB05F15407CDF80090024605F14400019005F11C060297BC490396AB781020F6
:20033C0003F0B8FCBA4904F12002102003F0B2FC20780DF05BFBB7490246102003F0AAFC13
:20035C0020780DF053FBB4490246102003F0A2FCB249102003F09EFC606851465246B3A393
:20037C000DF0CFFC04F14A00DFF8BCB2DFF8B0820C90A068AB4A49464FF0FF3300F0C8F9C2
:20039C00061CF6D0CDF8109005A80DF1260104AA0DF0F0F800287CD1BDF814100120824658
:2003BC0010296FD120789DF8261088426AD1049F38884FF6FF71814264D03B78913B37D0AB
:2003DC001F3B5FD17878162818BF484605D150460DF04EFD5046C8F80070636980B93979B3
:2003FC0060687E2904D07F2917D1398993A301E0397A96A300914A4605210DF082FC0CE09B
:20041C008BB94FF6FD70B749B74A00904B46102003F040FC6369C2B22AB1397908373846BF
:20043C0000F07AF92EE043F00203CA46636129E07B780E3B04D09B1E20D023E0B5A1000008
:20045C00B88842F2030181421CD1B9680F78CFB9491C0DF11E000A68496802600DF11E07FF
:20047C00416038789E490DF11E0200F0FD003870102003F00FFC05E0D9350000082049469D
:20049C0004F040FE049820B1BAF1000F01D00EF061FDF00FC0F0AB80A3E0C0460C0D00201E
:2004BC00CFA9000021AB00007809010055500C4000000E402D100940E768384600F030F9AF
:2004DC00874208BF4F4602D087680BF00BFB381C00F087803888401E7DD0C01E46D0001F50
:2004FC002ED008387AD16069800822D3D8F80030FBB15888197908331A4600F015F9824692
:20051C00BAF1160F04D0BAF1040F01D00DF0B0FC6369BAF1000F0CD133F00203636108D1BB
:20053C007049714A4FF6FD7001230090102003F0B1FB78680BF0D6FA50E0C04600100E40B7
:20055C00786803783BB1CDF800B0606804214A4642A30DF0D6FBCDF800B060492A8A4B4630
:20057C00E4E7C046003009400DE000007968BB786268087833B3012B1AD0022B0AD0032B99
:20059C0027D1002808BF39A31DD03DA315E0C04631E20000E8B940A315E0C04669DB0000DE
:2005BC00F40C010044060020694F0020DC0E0020002808BF3CA306D03FA3009003E0C046D3
:2005DC00980B010041A3104602214A460DF099FB79680846AEE7B87804F0B2FB38460BF0CF
:2005FC0081FAE06800F0A4F800283FF465AF700804D33E4800F0A0F808F002F8B008FFF427
:20061C00B8AE0C9809F0EEFBB3E6C0468BC80000C1E400005188011031810110C5AB00100E
:20063C005C1D0020030000C040E20100424C45205065726970686572616C00C04D5455204A
:20065C0053697A653A20256400C046C046432056696F6C617465643A2025640050617373DF
:20067C00636F64653A20256400C046C0426F6E642073617665207375636365737300C046A9
:20069C00426F6E642073617665206661696C65643A20256400C046C0426F6E64696E6720DD
:2006BC00737563636573730050616972696E6720737563636573730050616972696E672058
:2006DC006661696C3A20256400C046C050616972696E67207374617274656400F5D500000E
:2006FC0095B40010B9BC000099E70000A8020020DFF800F0A1B60110DFF800F085BF01107B
:20071C00DFF800F061C00110DFF800F089AF0110DFF800F0F99B0110DFF800F08984011063
:20073C00DFF800F019BD0110DFF800F0DDFE0010DFF800F04FBF0110DFF800F01FBE0110A2
:20075C002DE9F04FD04C04F118012046ADF1340D0BF076FCD24D002604F1A40A4FF6FF70B0
:20077C000123667032462082294650460BF034FECC480223324629460BF02EFECF48042392
:20079C00324629460BF028FE04F14408042010223146A070404609F0FDFE04F15409102219
:2007BC004846314609F0F6FE04F11C073E6004F10A052E7007206072DFF80CB3E6710222C9
:2007DC002672594610200346CDF8008003F062FA102003225946CDF80090034603F05AFAE0
:2007FC000422102059460097134603F053FA4FF0080A4FF003094FF0010B05F12A0007901A
:20081C0005F17900089005F11E00099005F15A000A9024350B9517E06078A28FE18FB4F809
:20083C004050B4F8423006280ED1ADF80A20ADF80C10ADF80E509B48ADF8103000F038FA64
:20085C00584602A907F02AFEA069B64A31464FF0FF33FFF75DFF071CF6D0059606A80DF1A1
:20087C001A0105AA0CF086FE002840F0C181BDF818102078102940F0B7819DF81A108842D9
:20089C0040F0B281059D29884FF6FF728A4200F0A0812B78A23B00F083812E3B40F0A481C1
:2008BC00A978B046002900F03F81891E00F00E81491E012940F2D680891E00F09A80491ED5
:2008DC006ED0491E5BD0083900F05A81891E40F05D8194F83A10A8880529ADF8080046D074
:2008FC0070488DF812B000F0E3F994F83A0001281ED004281CD003280DD002280BD0059872
:20091C00C188ADF80A100189ADF80C104189ADF80E10818927E0A18FE08FADF80A10B4F8C0
:20093C004020ADF80C00B4F84210ADF80E201AE0A08FE9888842D8BF081CADF80A00298939
:20095C00E08F8842D8BF081CADF80C006989B4F840008842D8BF081CADF80E00A989B4F8E2
:20097C004200884200DC0846ADF8100001E08DF81260AB49102002AA03F08CF906E14F48D2
:20099C0000F096F96B78002B40F00081E88860822889A0826889E08242480EF039F9F5E0F6
:2009BC00AA88B649102003F075F907984146062209F0F0FD6682A682E682A8792073394878
:2009DC0000F076F93D4800F073F9D8464FF6FF702379208253B9A879082814BF0420052032
:2009FC006070A069594600F067F9CFE084F80190CCE06B787BBB291D0A68079802608988C8
:200A1C0081800623637068892082E8896082288AA082688A94F83A10E082E8780129E072FD
:200A3C0018BF02290BD19B4910201F2203F032F94FF47A7180B241431A480CF0C7FA688955
:200A5C000423009092490193EA7810202D1D2B4603F020F99DE06878312840F08E80E670B1
:200A7C0004202EE06B78002B40F08780A878E1896278032818D0E078257939B9012814BF88
:200A9C002671E67008E0C046E8080020054303D081480CF09BFA6278072AE1D1062010E007
:200ABC008DEC0000B0090020062A09D0E578002D08BF84F801906CD0022002E0D409002024
:200ADC000720607065E0C04685E400006B78002B53D1EB7861789BB902291ED007291CD058
:200AFC00062902D12079012817D1032915D06A480EF08EF888B9A069594600F0DDF80CE04D
:200B1C000CF074FF0246A07960490090089843460190102003F0BEF868706D78002D2CD136
:200B3C0034E0C046070000806B7833BB5B485649009002221020034603F0ACF858484A46F1
:200B5C00514900901020034603F0A4F8ED1C296809980160A9888180207884F801B00CF0B8
:200B7C0045FF02465B460A9D6079484900901020019503F08FF8C0B258B184F801A008E0CB
:200B9C00AA8840491020052303F084F8B8F1010F2AD1256A45B3296831B36078884723E05D
:200BBC006879132820D12889012808D1607B022805D13E4800F07CF80CF026FD14E0354903
:200BDC001020052203F066F881B238480CF0FEF90AE06888C00B07D3324804222A49009089
:200BFC001346102003F056F8059808B10EF0B2F92579E07879082ED355EA00032BD02046F5
:200C1C0000787DB9E279217A8DF808200B9D8DF809102B680DF10A010B60AA888A8003E0FB
:200C3C00051601108DF80890627A8DF81020A17A8DF811100CF0DAFE1149024602AB1020AA
:200C5C0003F028F838B1256A84F801A01DB1296809B150468847B80803D31349304607F0F3
:200C7C001DFCF808FFF4F0AD607B401E3FF4D4AD401E7FF4E9AD0CF0C7FCE5E5D1A9000058
:200C9C0059440110C1170110B56E000009450110F176000011E800008C0900202C090020B5
:200CBC003C0900200409002022090020D4090020DFF800F0B9BA0110DFF800F055A4011022
:200CDC002DE9F04F09AFADF13C0D08900A92388809911E46ADF81800101C08BF002000F052
:200CFC007581017800274FF0010B401C4FF0FF39B846DA460A9061E1252940F0568101785C
:200D1C00401C0A902D2918BFADF8068004D10178ADF806B0401C0A9030291CBF4246434685
:200D3C0004D10178401C5A465B460A902A29CDF800804D4617D1049330680A9BCDF80890CE
:200D5C00C01C20F00300001D306050F8044C1978002C009403F101000A9018D5ADF806A02B
:200D7C006442009413E044460AE0600000EBC4004018A0F130040A9801780094401C0A90E5
:200D9C00302901DB3A29F0DBCDF8089004932E2929D10178401C2A290A9011D13168CDF88D
:200DBC000880C91C21F00301091D316051F8045C002D48BF454601782B46401C0A9011E0A5
:200DDC00454643460AE0680000EBC5004018A0F130050A9801782B46401C0A90302901DB0C
:200DFC003A29F0DB02930AB1224604926C2904D04C2918BFADF8048004D10178ADF804A0E6
:200E1C00401C0A900BA8CDF80C800FAB07906429059300F0828069297FD0BDF818C0752948
:200E3C006DD0782969D06F2965D070294ED063293ED0732922D00A98401E0A90099801286F
:200E5C001AD966490C68B5F1FF3F03D0A84288BF6D1C05D86FF00041814294BF0D1C099D8D
:200E7C00029508A80AA932466B46A04709993F18091A0398099165E0454617E03068C01CC0
:200E9C0020F00300001D306050F8040CBCF1010F014608B94FA0014607910DF025FE0390D8
:200EBC00B5F1FF3F4FD0A8424DD9039528464AE03068C01C20F00300001D306010F8040C87
:200EDC008DF82C005D46039558463CE0082035680490E81C20F00300001D306050F8041CCB
:200EFC00082210230FA809F05DFF401E079040210170079823E0082302E0102300E00A23B7
:200F1C003068C01C20F00300001D306050F8041CAA42BCBF2A1C04920DE03068C01C20F065
:200F3C000300001D306050F8041CAA42BCBF2A1C04926FF009030FA809F034FF07900599B7
:200F5C00081A0390009C241ABDF8065000945DB906E008A8202109AA0CF0FDFE7F1C009C79
:200F7C00641E0094F5D50398401EB0F1FF3F03900FD1BDF8060001281CD10098401E0090D3
:200F9C0018D408A8202109AA0CF0E5FE00987F1CF4E70798017809AA08A80CF0DCFE0798C8
:200FBC00401C079003987F1CDEE708A809AA0CF0D2FE7F1C0A980178401C0A9000297FF4B0
:200FDC009BAE089808B14146017038460FB0BDE8F08FC046286E756C6C2900C0880D010092
:040FFC0030BF70474B
:20100000B41200001810000019BE0000FDB301106DC00110FDAE011099B5011000000000F1
:08102000000000002D0000009B
:20102800B01200003C100000B1C00110A9BF011067C0011069B80110000000000000000035
:041048003000000074
:20104C00B012000060100000BDC00110CDB30110D9BD01106DB3011000000000000000005B
:04106C00310000004F
:2010700000000000C812002004000000000000000000000020000000E8C901103000000050
:2010900028100000D01200200400000000000000000000000C000000D8CA0110180000002B
:2010B0004C100000D812002004000000000000000000000024000000F0CA011018000000AF
:2010D00000000000E01200200400000000000000000000001000000018CA01102C000000BB
:2010F00000100000F0120020040000000000000000000000200000006CCA0110240000001F
:20111000FFFFFFFFF81200200400000000000000000000002800000090CA011024000000DE
:20113000FFFFFFFF001300200400000000000000000000001400000008CB0110180000005C
:20115000FFFFFFFF0813002004000000000000000000000058000000B4C90110340000002A
:20117000FFFFFFFF101300200400000000000000000000001000000020CB011018000000F8
:20119000FFFFFFFF181300200400000000000000000000001C000000B4CA01102400000025
:2011B000FFFFFFFF201300200400000000000000000000003800000044CA0110280000004D
:2011D000FFFFFFFF281300200400000000000000000000005400000078C901103C000000C2
:0811F000010000007C0D01006C
:0411F80001000000F2
:0411FC0000000E00E1
:0412000000000F00DB
:0412040032000000B4
:0412080001000000E1
:04120C0008120020A4
:0412100000020000D8
:0412140000000000D6
:0412180001C90110F7
:04121C0000000000CE
:0412200000000000CA
:0412240008000000BE
:0412280000002200A0
:04122C005810002036
:0412300000000000BA
:0412340000000000B6
:0412380008000000AA
:04123C00C8110020B5
:0412400000000000AA
:0412440000000000A6
:04124800080000009A
:04124C00000000009E
:04125000000000009A
:041254000000000096
:041258000000000092
:04125C00010000008D
:04126000F01000206A
:041264000600000080
:041268000100000081
:04126C008C0F0020C3
:04127000000000007A
:041274000000000076
:041278000002000070
:04127C00000000006E
:02128000290043
:02128200010069
:02128400250043
:02128600300036
:02128800310033
:02128A002D0035
:02128C0001005F
:01128E00015E
:08129000030000000C0D010039
:0812980000000000000000004E
:0412A0000000010049
:0412A4000000030043
:0412A80013C401105A
:0412AC000FEA000045
:0412B000B812000070
:0412B400B81200006C
:0412B8000000000032
:0412BC00901200206C
:0412C0008BEB0000B4
:0412C4002000000006
:0412C800480C0100CD
:0412CC00C80A01004B
:0412D00029C101101F
:0412D40007E7000028
:0412D8003BEA0000ED
:0412DC00A1C7011095
:0412E000A3C701108F
:0412E4000000000006
:0412E8004F0D0100A5
:0412EC0040080100B5
:0412F0005808010099
:0412F40028080100C5
:0212F8000200F2
:0212FA000900E9
:0212FC000100EF
:0212FE000000EE
:0113000001EB
:0413040019EB0000E1
:0413080019D20000F6
:04130C00E5E0000018
:0413100029D50000DB
:04131400C3D500003D
:04131800CDC4000040
:04131C00E19C000050
:04132000B3ED000029
:0413240049BA0000C2
:0413280015C70110D4
:04132C0025C70110C0
:201330002DE9F04F0F46CD4C0168E16241688068ADF11C0DE060C548A1608047C448E16A6A
:201350000160A168DFF810A34160E168DFF804938160CE49002FA346C1606FD03D68E878BC
:201370008DF80C0028798DF80D0003A80EF090F9A86808B1C6490160E86808B1C5490160B6
:20139000C54C287820706878BE686070A878B268A0703178A2607368E1702E696360EA6958
:2013B00026627968E2620868E06068696062A8697B68A062286A9E68206395F8240084F8EF
:2013D00034001EB900200DF00DF900E066617868C06818B900200DF005F900E0A061786873
:2013F000006918B900200DF0FDF800E0E0617868406818B900200DF0F5F800E0206128691B
:201410002062F86881680E6806B9D24ED0494FF001084E60C66881F8018036B900200DF059
:20143000E1F84D462E68F86801E04D462E6000685446FB68A0615868E06107E000200DF0CD
:20145000D1F84D462E684FF001085446361DC7493668621C04F114035020B04710B1286865
:2014700080688047DBF808008047C24E002781463B46BF4877706946206104223370384627
:201490000BF01EFD0098B0F5801F0CD020B90CF0BBFB05F059FA08E009F040FF0DF020FB63
:2014B0000420708001E00CF0AFFB3846BA4EA0602B68B760986980477060AF4880F80080CA
:2014D0003946418014200DF0E1FBFF211422A06209F066F8E01CFF21022209F061F814203A
:2014F0000DF0D4FBA54F386038680021142209F057F8002000F052F940460BF0F1FBA04895
:201510000188FF2906D1022101807822001D002109F046F803200EF0B7F804200EF0B0F8E6
:2015300005200EF0A9F806200EF0A2F807200AF055FA944E0820307006F124000EF094F85A
:201550000AF00AFC06F1360A05200A2152460CF091FF38B10020C0F10901401C0AF8011B92
:201570000A28F8DB3078102106F028F92B68864909200DF10E025E68087001AB1020002192
:20159000B047A06AE1690A260A309DF80E20761E00F8012BF9D1891EE161DBF80C104846DB
:2015B000884704F120002B68626A059040461E69DFF8D88104F120034146B04710B128681F
:2015D00080688047B8460CF095FC5FEA000903D007F058FC4FF0FF39002643E0029821696D
:2015F00010F8062CA0F10C07032A03D1002939D0884737E0A16A9DF810C00A223046491E6B
:2016100011F8013F9C4506D0521E00F10100F7D14FF0FF0A01E05FFA80FA2868BAF1FF0F4B
:2016300000F108001CD038790BF07EFDB979012904D0022904BF0299887001E002990870E9
:20165000029950460CF05CFE0CE0C04641490010F84400204813002050110020700C002073
:20167000006880472868C36904A902AA0DF10F0098470028B2D0D8F800007700C35B6BB9F7
:20169000761CF6B20A2EF8DB2BE0C046A8F6000011DB0000E1E70000201000200A2E20DA10
:2016B000DBF808008047D8F80010002231F807A0CA53DBF80C108847354850F8262026702A
:2016D0005146304690470646FF202070DBF808008047D8F800107A5A16437E52DBF80C10AD
:2016F00088470CF007FC0746B9451AD007B9294FE069B84238BF071CDBF8080080478146D9
:201710002868016A206A8847626A28681F49059B521C6262C6683846B047DBF80C104846AF
:201730008847A768296860691431AFB9D8F800000A270026835B33B1096960698847296830
:20175000D8F8000014317F1E06F10206F2D107E0A8120020CFCE0000096988472968143190
:2017700009684FF0FF3088472DE7C04679E0000059E800003C13002038130020BC1E002023
:20179000980D002074070020CE1E002071D10000500A01008EC2F5285C1E00202DE9F84FCC
:2017B000DFF8BC13DFF8BC23DFF8BC5308700821002010600D23DFF8B4034FF44E72017074
:2017D00043808280DFF8A8030560AC7EDFF8A4030470FF2CE97E417008BFFF292A7F827064
:2017F0006B7FC370AE7F0671ED7F457115D1FF2A08BFFF2B11D1FF2E08BFFF2D0DD1DFF83F
:2018100078130A7802704B7843708A788270CB78C3700A79027149794171DFF8601302782B
:20183000DFF85C83DFF85C93DFF85C730A70FF2543784B7082788A70C378CB7002790A7102
:201850004079487188F8005088F8015088F8025088F8035088F8045088F805500020CB49E3
:201870000880D9F83440CA49607808702278C9493A70A0780870A2681079C74A411E1170BE
:20189000E078C649C64A0870E068106008B90CF0A9FE2069C34E306008B90CF0A3FE30680D
:2018B000DFF804A301688847326852F8041F50468847BE48BE49CAF82000CAF82410606948
:2018D000BC49086008B90CF08DFEA069BA49086008B90CF087FEE069B849086008B90CF01E
:2018F00081FEDFF8DCB2B74C9BF804000DF0CEF90028206075D09BF80500B34E0DF0C6F954
:20191000002830606DD09BF80600DFF8C0A20DF0BDF90028CAF8000063D09BF807000DF089
:20193000B5F9AB49002808605BD039789BF80000891C484380B20DF0A9F9A64900288860F6
:201950004FD03878002862D0BBF80210484380B20DF09CF9A04A0028506042D038780DF0B9
:2019700095F99E49002808603BD0387840000DF08DF99B490028086033D0387818214843E9
:201990000DF084F9974A106058B3387840010DF07DF99549086020B3387800010DF076F9C7
:2019B00092490860E8B1387800010DF06FF990490860B0B13878302148430DF067F98D4AC3
:2019D000106070B18C483978007848430DF05EF98A4A106028B138780DF058F98849086036
:2019F00018B9BDE8F14F05F0D9BA4FF0000B09E00DF01CF900214180816001800223037177
:201A10000BF1010B39785FFA8BF08842F0D32268694F0120107121680D73206845732168E6
:201A30008D732068C57321680D7400212068457400202268D172A0222168487103212068CD
:201A5000C28001720720226850720021206881722821206801224182C2760020216848775B
:201A70000022206880F85E200121226811770120216881F85D0001223068027131680D73BB
:201A90003068457331688D733068C57331680D7400213068457400203268D1720022316839
:201AB0004871306882724FF420703168C88008818A7401213368D974DAF800201573DAF840
:201AD00000104D73DAF800209573DAF80010CD73DAF8002015740022DAF800104D740121A8
:201AF000DAF80030DA720023DAF800201171DAF800104B71DAF80010C88008818B7205207E
:201B1000DAF800209374DAF800103E4AC874106880473968054608688047396851F8042F97
:201B300000209047D9F80C101C4B0A881878364902430A802846354A136898470C213448EA
:201B50000DF08EFD40460DF087FD0DF081FDBDE8F44F034800784FF4005105F02FBE00BF8B
:201B70006E4F0020044F0020B63F0050604E0020084F00202C4E0020E81200503C4E0020ED
:201B9000344E0020A40D01007B4F00200C4F00206D4F00206B4F0020724F00206C4F00200A
:201BB000F04E0020F44E00207C4B00209DEC0000BDEC0000F84E0020FC4E0020A01E00208E
:201BD00084120020104F0020144F0020184F00201C4F0020681E0020684E0020004F002040
:201BF000A41E0020804E0020844E0020884E00208C4E0020904E00205D130020A81E0020AF
:201C1000AC1E0020780C0020544F00207C0C0020F84D00202DE9F84FC04CA178FF2904BFE9
:201C300000200CF0DFFCA0780CF032FF044604F1680504F190062968086810B10021E183DA
:201C50000CE0A87B002804BFA97E002906D13078002801BF207F0128608CE0832189E08B97
:201C70004118491C618120460DF0EEFC01281EBFAB480178012904D121890020491CE08364
:201C900061814FF6FF77A87E01280DD1AA8B618920890DF0D5FC38B1218960894A1C93B2AD
:201CB00098421BD0A88B0FE03078012816D17288618920890DF0C4FC80B1218960894A1C01
:201CD00093B298420AD0708892B2904206D03818608180B20DF0B0FC3F18E78304F5967942
:201CF00099F8040020B120890021401CE183608104F12E07A87E012811D12189A88B4B1C64
:201D10009BB298420BD160810DF096FC8046B988288C01FB0808204608F06AFF01E0B7F822
:201D30000480B4F81EC022687E4ED2F80CE00CF1010000FB08F340F6C41000FB03F18E44BA
:201D5000C2F80CE03668DFF8E0E13678BEF80080764AB609032E11D1D67BF60748BF4FF08D
:201D700000080BD408F101081FFA88F6012E12BF668AB9F8066006F2DC5600E0668A5E4331
:201D90004FF4C87AB6FBFAF6761C6661AEF80080A3614FF0180894F806A084F820C008FB9A
:201DB0000AFADFF88CC1DCF800E023680EF1080656F80AB0C3F810B094F806A008FB0AFAE3
:201DD000CDF800A0D3F80CB0D4F814A0ABEB0A0ADDF800B046F80BA094F806A008FB0AFA36
:201DF00056F80A609E600EF10C06A37908FB03F30EF10C0EF65C06F0F00646F002060EF85C
:201E100003604FF0000ADCF800E0A6790EF1020308FB06F623F806A0464BA6791B687601C5
:201E300003F1140AD4F814B05AF806A00AEB4B0A03F1140B4BF806A0AD7E022D0BD1A5795E
:201E50006D0103F1140697F800B056F805A000FB0BAA46F805A0BD88D27BA779D60736D597
:201E700008FB07F70EF10802D659A6F5A86A0EF1080646F807A0A77908FB07F7D25927689F
:201E9000511A3961BA6003F11402A1794901575807F5F667575003F11401A279520189589E
:201EB000C9F800106843244AA179156B03EB41162968401AA0F51670F0612049A07903EB82
:201ED00040100B78012B14D10121C17214E003F114027F01D1592A464243A1F5E661A2F5A8
:201EF00016729142DED3082120460DF0A1FB012011E0916A4A78C272A179DCF8000008FBAA
:201F100001F281182268516007200D490870204608F080FB0020BDE8F28F00BF684E002041
:201F3000784F0020084F0020C41E00205C4D0020804E0020844E0020A40D0100734F0020F4
:201F50006F4F00202DE9F84F0C46E00788B00BD50CF07CFE28B100218160B348006800B180
:201F7000804784F001005CE1A0070FD50021002306910591049103930291019100910122D8
:201F90003C200DF051FB84F002004AE11D256007A64EA74F40F18A80002107918B46A548A6
:201FB0008178FF2904BF00200CF01CFB386890F8A0000CF06DFD80463868C07A98F82691E5
:201FD000022818BF032808F5907A06D106F10D000DF026FB08B906F1070B514648460DF0D9
:201FF0001BFB88B33868807A002818BF012804D1314650460DF00CFB04E052464946304657
:202010000DF002FBFF2834D005FB00F906EB090506225146E81D0CF03BFC16F809003968E4
:2020300040F00209E81D07900622887E00F0010088F8260105F1010A386800F1140108F54F
:2020500090700CF025FC14E0514648460DF0D8FA78B15246494630460DF0D6FAFF2808D0D9
:2020700006F10D01454348190DF0DAFA08B949F0020908F12C004B460178069142891209E0
:2020900005920122B8F822100491C0880799029140080390CDF804B0CDF800A0002098F81B
:2020B00006100DF0C1FA84F00400BAE020060FD50021002306910591049103930291019165
:2020D000009101223B200DF0AFFA84F08000A8E0E0044BD5F11D06F10D000DF08DFA386885
:2020F000017A012918BF042931D1C17A02291EBF0329817E01292AD1817E00F11402304616
:202110000DF082FAFF2811D04543354405F10D000DF086FA50B9E91D05F10D000DF06CFA38
:2021300038680622E91D14300CF0B2FB3868C07A022818BF03280AD106F10D000DF070FA88
:2021500028B938680622F11D0C300CF0A1FB3A4842683A4800784FF480510AF029FB10B1CB
:202170008E2008F021F984F480505AE0A00505D50CF024FE324901200860FEE7600504D549
:2021900006F06FFF84F480604BE0600405D5812008F00AF984F4804043E0A10440D5294DE3
:2021B000286810B100200CF01DFA274E4FF0FF3028600DF01DFA3168244D51F8202F6846BC
:2021D00090472349234B486A8A6A009001920293C86A0268086A0392ADF810000A6B11788A
:2021F000002904BF5068002805D19068002804BFD068002806D02970506868609168A960F9
:20221000D068E86029463568134A2E6813486B46B0471349086003F071FC84F4005000E060
:20223000002009B0BDE8F08F204F0020AC450020104F0020684E0020784E00206E4F0020D9
:20225000FC002043044F0020F04E002068450020201000204DEC00002C4D0020601D0020B2
:20227000EC4E0020BB482DE9F84F0025BA4CB849056094F8E200002800F06581012800F07E
:202290002F81B64E02283CD0032840F05C8151F8250CD4F8B8100029A0F5C060C4F8D40090
:2022B000B8BF49420028B8BF4042814226DA4FF08057D7F8A4014568B4F8BC0030214FF4F5
:2022D0007F42082300903046A847D7F8A4014568B4F8C00004214FF4F802122300903046E3
:2022F000A847D7F8A401B4F8D070456820214FF440620A2330460097A847012584F8D850B9
:202310001CE151F8258C0CF059FD2F4600B901273946934F38680028FCD0B146012609F101
:202330000409D9F82CA03E6009B10CF04DFDCAF30720C4F8BC000CF041FDAA4600B9B2460E
:202350003B68002BFCD0D9F800B0BAF1000F3E6001D00CF039FDCBF38440C4F8C0000CF0FD
:202370002DFDAA4600B9B2463B68002BFCD0D9F81C90BAF1000F3E6001D00CF025FDC9F368
:202390008120C4F8D000B8F5C061C4F8B81000F09C8094F8D80068B9C4F8D410D4F8C000F1
:2023B000C4F8C800D4F8BC70C4F8C470D4F8D030C4F8CC30D4F8D400D4F8BC30002854BF8A
:2023D00002226FF0010204F1C8010F6800EB40008018421000EB927207EBA2000860D4F866
:2023F000C810C4F8C43000291CDD1E293CDDD4F8CC0030B93429B4BF15391E21C4F8C81051
:2024100025E02A29BABFD4F8C8000B381E20C4F8C800D4F8C4003F28B4BF401C3F20C4F861
:20243000C4001FE0D4F8CC00032812D011F10B0FC6BFD4F8C8000B30301CC4F8C800D4F818
:20245000C4000028C4BF401E051CC4F8C450032508E011F1150FC6BFD4F8C8001530301CCE
:20247000C4F8C800C4F8CC504FF08057D7F8A401B4F8C43030214FF47F42456837480093B2
:202490000823A847D7F8A40104214FF400321123456832480096A847B4F8C860D7F8A401DC
:2024B00004214FF4F802122345682C480096A847D7F8A40120214FF440620A23B4F8CC6030
:2024D000456826480096A84701E084F8D85040F2FF50404502D8801C40452FD2082030E08D
:2024F00051F8251C1F4F4BF2F5204843060A3868C0F3814001280CD11B48006800688047D3
:202510000AF058FB0CF066FC3111C010484306EBE03694F8E50030B91448006820F07F406F
:202530003618760801E084F8E5501148310C0660012741600F4D8760287808B90B2000E0B9
:20255000052084F8E40003F049F9BDE8F88FC0462D400C402C500C405C0B002000A00C408B
:2025700000800C40B43F0050EC010010102009403C600C40190C01002DE9F84FB34D69688A
:2025900084B0019121B905B0BDE8F04F0DF02CB80978DFF8BC82AF4EDFF8BC92DFF8BCA224
:2025B00001291CBF0229042946F2A81741F64C5B05D0402918BF802900F096803CE10CF0FC
:2025D00039FC0028FAD00198007804F029F90090446814B900200CF005F89AF801000028C0
:2025F0005CD000F043F90CF053FA02900168009801914F6808F022FD022825D000990A78FD
:20261000012ADBD196490A68137A19F80310317018B90CF0E5FF5844A0602069C17E01F02A
:20263000EF01C1762069C17E41F08001C1762069C17E01F0F00141F00201C1762269B968F1
:2026500088484118D1614BE001980178802911D10820854930700A78012A03D09AF801009E
:20267000022801DB38690CE0D8F828003A690178D1720DE07C49072030700A783869012A99
:2026900002D10121C17203E0D8F828104A78C2720298817901988AF80210C8E000980028F8
:2026B0008CD00199009A0078914205D101281CBF00200BF097FF15E0012840F0BD80684869
:2026D00001680A7A19F8020030700CF089FF3918A0680CF081FF18B90CF082FF5844A06007
:2026F0000120A8700098A2E09AF8010000287AD000F0BCF80CF0CCF90446206802904768FA
:202710009AF802000CF0C4F903900CF099FB10F0070F3DD0A87804F083F8019041680198B4
:202730000091029908F08AFC022831D001990A78012A2AD14A490A68137A19F8031031701B
:2027500028B90CF04DFF83440098C0F808B000980069C17E01F0EF01C17600980069C17ED9
:2027700041F08001C17600980069C17E01F0F00141F00201C176009AB9683A4841181069C4
:20279000C16101210198A97051E000200BF02AFF0398A04225D0029833490278802A12D12F
:2027B000082030700978012903D09AF80100022803DB38690121C17210E0D8F828003A69A7
:2027D0000178D1720AE0072030700978386901290EBF0122D8F828104A78C272A0798AF8A7
:2027F0000200029823E00CF02BFB10F0070F29D0A87804F015F804462078D4F8048001287D
:2028100020D117490868027A19F8021031700CF0E7FE3918D8F808000CF0DEFE20B90CF0F0
:20283000DFFE5844C8F808000120A870204605B0BDE8F04F05F012BC05B0BDE8F04F002093
:202850000BF0D0BE05B0BDE8F08F00BF681E0020A40D01006F4F0020289A0110684E002068
:20287000104F0020F0D8FFFF734F00202DE9FE4FB24C617811B900200BF0B4FE0CF0B0FEA6
:202890004FF00008074607F6C417C246AC4DDFF8B49228E050460CF0FBF806467079F0B13B
:2028B0002968B07901F80800394608F101005FFA80F830460CF08CFE30680178402902BFCC
:2028D00006F182000178012902BF41887289914205D1B169C088411830460AF0D3FA0AF1AB
:2028F00001005FFA80FA99F800008245D2DB6178884505D000200BF075FE82200CF064FEE6
:202910006078012840F0F180002701E07F1CFFB299F80000874280F2E28038460CF0B8F859
:20293000064670790028F1D02968B0790A7890421CBF00200BF056FEB079FDE0286810F873
:2029500009000CF0A5F800684268DAF808109068814204BF3E4609F1010900F0D480D6E0C9
:20297000286890F800B001224FF4C0710FE0636803F5AD76835C01FB03F901FB0BFE36F809
:2029900009C036F80E60B44538BF9B46521CFBB29A42ECDB4FF6FF700CF012FE0646584689
:2029B0000CF076F868490068D0F804A00868D94630F8192060684FF4C07300F10E0103FBEC
:2029D00009F3C85AB2EBD00F52D2720840F6C4104243009200275D4A0190029217E0584606
:2029F0000CF056F801680A78802A03D1DAF81030009A5A610978402908D1029980790A68E4
:202A100002EB4011009800F5A060C8617F1C47452EDA2868C05D8345F8D001464FF4C07389
:202A3000594363685A1803F5AD73D289595A53088B4202D2521A9045E8DA0CF029F8016802
:202A50004A68019B9168DAF808207008A1F6C41103FB00200CF0C0FD0028C0D03A480068C8
:202A700030F81910491C20F81910286810F807B0296808780CF00CF80026006847684FF46F
:202A9000C079464551DA2868805D0CF001F80068296842688B5D606809FB03F3034403F14D
:202AB0008201087830B15889B1F802C0401C80B2604508DA887B01280ED15889098A401CE6
:202AD00080B2884208DB6EB3B968906801F5C241A8310CF081FD28B3761CF6B2D1E7002094
:202AF0000BF080FD82200CF06FFD617828680CF063FD286800780BF0CBFF00260068D0F85C
:202B100004A04FF00109771CC145FFF617AFF6B2002E1CBFF8B200287FF422AF286890F885
:202B300000B037E7296811F806B007490A6800205B4622F813005846BDE8FE8F684E002011
:202B5000004F00207B4F0020A41E0020844E00202DE9F84FDFF8C0B20F460546F80B80F07F
:202B70000B81A74EDFF89082B80F80F0BD80B80880F0B1803809C0F032819D4801780909F2
:202B900080F0A480007830F07F0040F09F80684606F004FB012803D10098002800F09680C5
:202BB00094480078002840F0918001240025E8B20BF064FF48B1837A3BB1847290F909009C
:202BD00004FA00F0C0B20AF0EBF96D1C032DEED345464FF0030A05F1AC0085F810A00CF08B
:202BF000EDF9DFF82492002109F11402884610681160824952F8080C05F1340042F8088C49
:202C100042460CF0E7F93068006B8047AA68A969801A000BC0F1FF328A422CBF01444FF090
:202C3000FF31A961287F20B1E868A969B1EBC02F1ED90BF0C5FA414600B12146A9B1714882
:202C500040F60901018046464680427B64F303024273027B66F30302027346604B46DE61BD
:202C70001860418811F4406FFBD02C774146A9616649086820F0020040F400700860644A65
:202C900042F804AC41F23006966014605023936014604FF4CA6696601460022042F80C4CFC
:202CB00044460C600AF01AFB112005F079F9287818B9686838300CF099F9687F18B16C779D
:202CD00005200AF00BFB534868612C7408F04AF927F0080783E004F0D9F94046743000689F
:202CF00008B927F002077AE00CF06EF934468146606D0068014604208847C8B1287CB8B1F0
:202D10004046083006689EB12068EC68006B8047801BE860010BE960A14202D209194908B8
:202D3000E96040F6C41088422CBFB1F5FA7FE8604846FDF7EBFC0AF017F990B1A8696FF4EC
:202D5000807100224FF0007304462846A04740466C300068002808BF47F0020701D008F07D
:202D700001F9686900214FF0806304460A462846A04727F0005732E00CF026F959460E6896
:202D90004EB306F1280106C90A234FF0E0450B40154008BF002B1ED106F1280191E8300058
:202DB00006F1280393E8060006F12803AA43A14383E80600FDF7AAFCB16871B1002D08BF33
:202DD000002C0AD03069B6F93C10B2682B4616462246B04701E0FDF799FC27F4804727B1DF
:202DF0005846394650300CF009F9BDE8F88FC046C61E0020011500206813002061B400000C
:202E10008C010010241E002000100440000004600C410440E17B0000E81300202DE9FE4F80
:202E3000DFF84492914E99F80000914A914D92490D2873D8DFE810F016010E000E000E0049
:202E50000E000E010E0191000E01CD00CD00EB00EB00F200326041F2044A8849DFF82082D7
:202E70004A88884C52451FBF4B8B53454B8E53454FF4A0572DD1DFF810B2DBF8000000683C
:202E900000F108010079032816D1D1F80E0000281CBF088B00280FD091F8220010F0E00F8F
:202EB0000AD101F11E000CF083FB012804D1A5F800A07648306084E099F8001002290CBF19
:202ED00044462F8034600020DBF800100A68107177E0002A2A8039D0521E3CD0521E35D0FA
:202EF00040F2FE33D21A1AD0121F012A1DD94FF47F73D21A1BD04FF44063D21A0FD0921ECA
:202F1000012A0CD9121F0AD0521E012A0DD940F2F933D21A012A19D9121F08D09AE00228F1
:202F300014BF2F80444634604BE0594CFBE759480268137A012B05D141F20240488048838D
:202F50004886F0E74F804F834F86ECE700200BF049FB832082E08F2080E04F488178FF2948
:202F70000CD0326018204D4A414310684C4A831C40F204445B5A2B801B1B012B72D94FF409
:202F90007F741B1B0FD04FF440641B1B032B84BF5B1F012B0BD99B1E012B63D940F2FD347D
:202FB0001B1B08D103E0801C41F201434352326004F040FA05E000200BF014FB85200CF0F7
:202FD00003FB03B0BDE8F04F36480078012104F0F5BB40F204424888288090421CBF41F2C0
:202FF000084290423ED041F60402904211D12E4C2E4B0020CDE9004002222D4C2D482468FF
:20301000006854F8086FB0472B4908802AE04888288000200BF0E6FA85201FE048882880E9
:2030300002280DD940F20442801A1BD040F6FC72801A05D0083815D04FF47F72801AE8D1B4
:20305000887B801CC2B2B52AA8BF662088730020488007E000200BF0C5FA8420BDE8FE4F47
:203070000CF0B2BABDE8F78F6F4F0020204F002095EF0000504F0020CC4C0020204A00203B
:20309000B1540110615A0110F44B002059550110755B0110104F0020684E0020804E0020FC
:2030B000313901106E4F00200200008055D30000F04E0020EC4E0020424F00202DE9FC4142
:2030D000A0F2013714468846022F40F233819B4E9C493F1F0F2F04D9143F4BD0BF1E1CD059
:2030F00011E0DFE817F0CF00C9000E01FB00C100B9002701AF00A700100010009D008F001B
:203110007F00740065002D2880F21481B8F1020F40F010818849238808E1B8F1010F40F022
:203130000981F078012800F00581324620781179107181B9002800F0FD805078012800F023
:20315000B580042800F0B280062800F0AF80052840F0F080AAE02078002840F0EB80507815
:20317000032800F0B180072800F0AE80052840F0E180A9E0B8F1010F40F0DC802078012859
:2031900040F0D88006F1EC000BF04AFF002840F0D1803446002004F13A0105F085F9002862
:2031B00040F0C88004F1C800FDF788FDBDE8FC81B8F1020F40F0BE8020880A28C0F2BA8041
:2031D000B0F5486F00F3B6800E46B61C17E0B8F1020F40F0AF802088B0F5FA7F80F2AA80C2
:2031F0000E460CE0B8F1020F40F0A48020880628C0F2A080B0F5486F00F39C803E3630803A
:20321000BDE8FC81B8F1020F40F0948020880628C0F29080B0F5486F00F38C803C36EEE744
:20323000B8F1010F40F086802078062880F28280454E0EE0B8F1010F7CD12078042879DAB7
:203250000A3606E0B8F1010F74D12078082871DA09363070BDE8FC81B8F1010F6AD120789A
:20327000042867DA0836F4E7B8F1010F62D1207804285FDCF61DECE7B8F1020F5AD120885A
:203290000E36BCE7B8F1010F54D13079012851D032462078D178D07071B900284AD0507899
:2032B000012803D0042818BF052843D190690121FDF708FDBDE8FC81207800283AD15078F5
:2032D000022818BF052835D110780AF095FB1C490246102000F0E4FCBDE8FC8106F183054A
:2032F00000211F22284607F05BF942462146284606F03EF844463078B4710AF07DFB00232E
:2033100011E006F1640500211F22284607F048F942462146284606F02BF8444630787471B7
:203330000AF06AFB01230094084901950246102000F0B6FCBDE8FC81BDD30000E8080020A3
:20335000994501102809002022090020094501102DE9F04F8246DAF80070DAF804600C468C
:203370005FEA0208ADF11C0D14BF00214FF0FF31DFF8409248460BF0EEFB002818BF0B207B
:2033900040F0158100258F488C4905708A48FC6052460BF01FFE317B27200BF01DFEB8F181
:2033B000010F07D0657002200AF094F906200AF091F901E0012060702078012840F2AA80FF
:2033D000801E012868D9801E012833D9801E012800F2DE800BF0F8FD83464FF0805000F52E
:2033F000EE77D0F8DC01A378466A009321782846062908BF0120019001200290A068228A3F
:20341000E1686368B04781465846FDF77FF9B9F1000F40F0BF80B8F1000F02D00BF0FCF91E
:2034300002E0504609F0DCFF002800F0A3803868806A2AE00BF0C8FD83464FF0805000F5D4
:20345000EE77D0F8DC01012306680093A168A27860682478AC46042C08BF9C466346B0473B
:2034700081465846FDF752F9B9F1000F40F09280B8F1000F02D00BF0CFF902E0504609F0DF
:20349000AFFF002876D03868406880474C49C1F8B0510D6081467DE00BF096FD83464FF07B
:2034B000805000F5EE77D0F8DC01E38A86690093E0680190208B0290A0780390207D04904C
:2034D0000121059122782846022A08BF081CE1786268A368B04781465846FDF717F9B9F1CD
:2034F000000F57D1B8F1000F02D00BF095F902E0504609F075FF00283CD03868006A804788
:203510005FEA000946D1E078A168E28A236906F083FDBFE70BF058FD83464FF0805000F5A0
:20353000EE76D0F8DC01E38AC7680093E0680190208B0290A0780390207D294604900120C1
:203550000590257805B9014608466268A368E178B84781465846FDF7D9F8B9F1000F19D1DC
:20357000B8F1000F02D00BF057F902E0504609F037FF08B914201AE03068406980475FEA7F
:20359000000907D1306802692169E078904781E74FF0FF39B8F1010F05D0022009F09EFE5A
:2035B000062009F09BFE03480BF020FD484607B0BDE8F08F880E0020C00E00209DDD000059
:2035D00050450240CC1E0020FEB5954E954F144602460025A2F58062182A1AD8DFE812F043
:2035F0001601100109010101FA00F400ED00E8001900CC00C500BE00B500AA0019001900CB
:2036100080006F00680054004C00420039002C0024002D2880F28C80022940F089802188F8
:2036300009F0C4FE0546F9E0012940F0F680002C00F0F3801136BEE0102940F0EE80002C54
:2036500000F0EB8030465030102221460BF020F9E4E0012940F0E180002C00F0DE803146EC
:203670008E1DA8E0262940F0D880002C00F0D58006F160002622E8E7012940F0CE80002C7D
:2036900000F0CB80761D96E0602900D13CB9012940F0C380002C00F0C0800D368BE006F1E9
:2036B0008600214660220BF0F3F801207073B5E0012940F0B28020780BF076FFAEE00129C0
:2036D00040F0AB802078022800F3A7800C3630702078022814BF281C01200BF061FF9DE0EF
:2036F000072940F09A80611C684606220AF0A4FF207869462A4604F031FF04460A2C17DA04
:203710000BF04AFF70B9204602F0C2FE3C462078002847D16088C0F5805080B2B0F54D7FAA
:2037300040DA3AE03246012002F12C06305575E0022573E0012970D1B07B21780028B173B8
:203750006CD1207801282DD068E0012965D12478072C62DB102C60DC0B3648E001295CD172
:2037700024780A2C59DA093641E0012955D12478022C52DA08363AE000294ED10BF00CFFE8
:2037900098B90BF031F93C46207858B96088C0F5805080B2B0F54D7F04DA0BF08FFA657031
:2037B00003F0D2F808F0D8FA38E001240F361EE0012932D10A36247819E001292DD124782C
:2037D000022C2ADAF61D12E0102926D1334603F1400039E7012920D12478022C1DDA361D76
:2037F00005E0012919D12478042C16DCF61C347014E0012911D12478022C0EDAB61CF6E7EB
:2038100002290AD120881436308007E0012904D12478022CD8BF761CE9DD18252846FEBDEB
:20383000740700203C1300202DE9F04385B011F8017B0446082F04F1FD0004F1FC0804F10A
:20385000760504F5A076844A844BDFF8149213D0092F21D00F2F2FD0112F01BF28780128A2
:203870006878102840F0D5800A78327648787076012184F83D11EBE00025521C4E5D5F5D1A
:203890003E434E55575D3E4046556D1C082DF5DB204607F09DFB74E00024571C0D5D1E5DD4
:2038B00035430D553A5D15400555641C082CF5DB022088F80000CBE098F80100820704D415
:2038D00010F0110F57D01A2266E008784A7800EB02203080CA78887800EB022070804A790E
:2038F000087900EB0220B080CA79887900EB0220F080087A30724A7A887A02EB002272814D
:20391000C87A0A7B00EB0220B0818A7B487B00EB0220F0810A7CC87B00EB022030828A7CBE
:20393000487C00EB022070820A7DC87C00EB0220B082487D897D00EB0120F0824948017857
:203950008A0658BF1A2212D504F5A670049071890391307A029021890191F0880090B388A1
:2039700072883188204606F0F1FFE0B11E2298F80100410710D40F2088F8150020460BF085
:2039900007FE002864D199F8000005B0BDE8F0434FF4804103F012BF204605B0BDE8F043DC
:2039B0000F210BF0F1BD7088A882B188E9820221F0882883297400206882A18EA88AC91D24
:2039D000E981618EB0EB510F02BFE88AA18E884202BF288BE18EB0EB111F18D028780128F8
:2039F00004BF68780F2805D0687918B10F21A972FE2127E0FC2120460BF0C2FDF0880090A8
:203A1000B38872883188A0790BF0B6FD20E0102118E0491E20460BF0ABFD032F18D1A8780D
:203A3000042818BF0D2813D16E78142E18BF0E2E0ED12F7820460BF097FD012F06BFAE728F
:203A5000FD213146204605B0BDE8F0430BF098BD05B0BDE8F08300BFEC4D0020901E0020CB
:203A70006E4F0020144E002010B50B7884074CBF43F0020303F0FD0304064CBF43F0800303
:203A900003F07F0304074CBF43F0080303F0F70384064CBF43F0200303F0DF0310F0AA0FE7
:203AB0000B7003D0107840F00C0003E018B9107800F0F300107010BD2DE9F8430D460027AD
:203AD0002878022814461E4667D1696808784978DDF8208000EB012080B25FEA08021CBF23
:203AF000B0F5285F0B205BD14FF42851401A08D0401E21D0401E2FD0401E25D0401E31D0E7
:203B10004BE0DDF82490E8680BF086FA80B2A0EB08024A45BCBFA0EB08001FFA80F909EB2C
:203B30000800162806DAA6F800904A46E86800EB08010DE00D2732E0E8680088022131806E
:203B50002070000A60702AE0062030800622E96820460AF09DFE22E001203080E9680A78F1
:203B700022701CE0E868B0B1082131800288227003881B0A63704188A1704288120AE2706B
:203B9000818821718288120A6271C188A171C088000AE07103E0308001E0378001273846B2
:203BB000BDE8F2832DE9F0470F46814638780024022890461D466DD17868089E0178407846
:203BD000DFF8D8A001EB002189B24FF42852891A06D0491E29D0491E4ED0491E39D059E07A
:203BF000F8680BF019FA80B2B04204D3A919162903DB0D244FE007244DE0FB682A4641465B
:203C100098190AF045FEAD19F868ADB2C5F11602002140190BF0FEF9DAF8000000281CBF12
:203C30000268002A37D0002123E08EBB022DE0D198F8000098F80110FA6800EB012010805D
:203C5000DAF8000000281CBF0268002A23D001210FE0EEB9062DCCD1F868062241460AF067
:203C700017FEDAF8000000281CBF0268002A12D00321484690470EE056B9012DB9D198F806
:203C90000000002813BF0128F9680870802402E00B2400E001242046BDE8F087B41E0020EA
:203CB0000FB42DE9F04F09AF8246ADF11C0D0BF003F9391D30F0010021F0030101F104011B
:203CD00000F0FD8004911420ADF80C0000260196FF258DF80E507C6805940BF041FC04462A
:203CF0000BF0EAF8DFF8E49130F0010008BF2C1C1FD00BF031FC0546FCF704FDA9B24A461A
:203D100080B261F30F08062160F31F48304632F80C7F57B153681B689C4204D0491E00F19A
:203D30000100F4D101E0C4B200E0FF2440460AF00EFE504608F02CFC0146FF2904D0204668
:203D5000032204AB05F0DCF90BF00AFC07F08EFD0546304600900BF0AFF830F0010000F02E
:203D7000AD80002D00F0AA80594FDFF868B13A68002431462346584605F0AAFD82460BF084
:203D9000E7FB3A68064600212346584605F0A0FD044600984FF00109514606EB010A069035
:203DB0000BE0069810B10C3807F0A2FE0498006886E0FEE701466EE00446686800214FF070
:203DD00000522346FCF7AAFC002852D00BF0C8FB07F04CFD061C40D00BF0BEFB8346FCF795
:203DF00091FCB7681FFA8BF180B261F30F08002F60F31F4808BF002708D057F80C1CB1609E
:203E1000002047F80C0CFF2307F8023C40460AF09EFD381C21D010F8081C062914DA2B4A9E
:203E3000084681000C3201EBC001565A66B14FF6F870B04208D03A460BF026F800281CBFDE
:203E500006924FF0000914D16846394607F07CFE68684FF00051FCF735FFB4F1FF3FACD009
:203E7000002CAAD00BF074FBBAEB000001D08442A2D20AF047FB009F0BF06EFB8246FCF778
:203E900041FC08351FFA8AF180B261F30F0860F31F4847B1394651F80C0C00288AD12868C2
:203EB00041F80C0C2F6040460AF051FDB9F1010F3FF47FAFB9F1000F3FF473AFFEE7FEE751
:203ED00007B0BDE8F04F04B07047C046B80C0020780D0100404B4C002DE9FE4F05467B4814
:203EF000002400680094C00905D37948007810B9202009F0A9FA012D40F0E280DFF80092EA
:203F1000D9F8DC00012840F0D8800220C9F8DC000AF00AFC012009F097FA5FEA000805D0A3
:203F30000120C9F8DC000AF00BFCCBE00BF062F8A34602906748684DC0F800B0A86A0168F0
:203F500001208847012804D1584607F0ADF8012000906248624FC0F800B0386811200AF0EA
:203F700045FF00B1012410200AF040FF08B144F002040F200AF03AFF08B144F004040B2039
:203F90000AF034FF20B12868564E016B308888470A200AF02BFF20B12868534E016B308878
:203FB00088475248012606602868816944F0200088474F4806600AF013FF00F001010191D1
:203FD000400814D2286A81684A4888478246BAF1040FF7D0BAF1010F04D1286A4268454821
:203FF000032190474449086820F003000860584600F088F82B683868986B80470198012871
:204010000CD0BAF1010F04D1286A42683948314690473949086840F0030008602F480660AF
:2040300028684169204688470B200AF0DFFE20B128682C4BC16A188888470A200AF0D6FE95
:2040500020B12868284BC16A18888847274806600322C9F8DC20264BC3F800B02868416B13
:20407000204688470128F9D13868042009F0ECF90446184806603868144800688009FBD39B
:204090000098012802D1304607F00EF80AF09CFE082009F0D9F907460298C9F8DC600BF0A3
:2040B00053FA1648008806F0FBFC0AF049FB57EA040018BF4FF0FF3804E06FF0040801E0D0
:2040D0006FF001084046BDE8FE8FC04614100940440C00200C400940B80100100002224308
:2040F0002C2009400A0801000608010028200860800104430040034024220840140C01004F
:204110005C0B00202DE9F84FDFF804B20746ABF13500DFF8F0810068800880F0E280754839
:204130000068006880477E490831D1F8009000254FEA29715FEA995201F101010AD2C0F1D2
:204150003E0210F10A0F4FEAE202D8BF08229142B8BF111C684BD3F87C21C2F30462162A2A
:20417000A8BF203A1B68C3F30443162BA8BF203B9A465218162A05DA12F10A0FB8BF6FF090
:20419000090200E015225D4B5D4E02F01F0141F4F8511980316811F0030F18BF0125C908F7
:2041B00028BF45F002050FB145F00405434693F90710411A052904DA9979A94208BF998856
:2041D0006FD0DFF844E10F28A0F10F0829DB08EB0011A1F1F0084FEA28210091072984BF9D
:2041F00007210091062988BF06215EF821600424774604EB81043C594FEA950CA41BEE0805
:2042100004F0FF0124BFC4F3072631446F08AE0824BFC4F3074631446E0828BF01EB146117
:2042300004E000214FEA950C6F080091009C5EF824E05FEA5C060EF0FF0424BFCEF3072614
:2042500034447E0824BFCEF3074634446E0828BF04EB1E64009E89B2A8EB0626714380311C
:2042700004EB1124AAEB02010029D8BF0121342209F0FF074A4391B24FF6FF727943B1FB4D
:20429000F4F18A4238BF111C802889B2998005DA10F1800FB8BF6FF07F0000E07F20D871B1
:2042B0009D711A4800681F2918604FF0000008D340F2FF128A4206D24908401C8A42FBD30E
:2042D00001E01F219980134F0F39090940EAC10047EA0001CBF8FB1F0026CBF8FF6FBDE8E2
:2042F000F88F0D490D4F434608200F609B1D1870BDE8F88FEC0100103C1100506E62084037
:2043100024220840981E00209C130050082009403500094000E7A48030100940FDFDA40009
:20433000AC3F00502DE9F04F044675488A46016894461F46BAF1000FADF13C0D4DD0BCF1F3
:20435000000F4AD09AF8002001209040014244D0BCF80000B0F5C15F32D1DCF81430DCF8C2
:2043700018206848DCF81C104FF0030E0DF128080B93DFF894B10C9200680D91C0F303694A
:2043900058F8046FCEB10021351F05200B4655F8042FB2F1FF3F10D0934506D0401E01F1A1
:2043B000040103F10103F2D107E0052B05DA705820F4702040EA09407050BEF1010EDFD12A
:2043D000C4F804A0C4F808C00AF0FEFD4F4D8046287820B14046FCF799F900208DE002F097
:2043F00089F94B49086840F00200086007A80AF00DFC002605F1D00007AA4649099608F018
:2044100015FC454905F5827007AA08F00FFC07A80AF0CCFBFF2105F1340007AB3F4A0891BF
:20443000192108F06BFB3E4A05F150001A2107AB08F064FB3B49324605F18800134607F0F8
:204450008DFD3949324605F1AC00134607F086FD364A05F120000421334609F0BFFC0E203D
:2044700003F0C8FF05F174000AF0EAFA05F16C000AF0E6FA2E74072085F898012E77AE615B
:204490006E770523AE602B49EB602A786961501C2870274B1E704046FCF738F9B1464FB919
:2044B0002548B0E88C106946A1E88C100DC86F4681E80D0038682060398A618201206074BC
:2044D0007B6813B940F6C4130646E3601B48A06126746061F86800B1A061B86800B160611E
:2044F0005822494604F1200006F05AF804F13800494609F0D9FA20466C600FB0BDE8F08FA9
:20451000D4210840541300500200F844681300200020094081E70000157B000061B4000048
:204530005DB20000B1E100004DE50000E9C10000C61E0020E17B0000B40B010077990000BE
:204550002DE9F04F05468248066800680F461C469246C4F399018900ADF12C0D0A0100219F
:20457000803206F01DF8DFF8D091A9F1880002467048016830469047A308804661080197EC
:204590009F1C21F00101F819009506EB80000390091DCDF808A07818434506EB800206EB84
:2045B000870B3844049206EB80000690C4F39C004FEA800000F1080007EB400000EB070215
:2045D00006EB82020A9224F0030202F1080200EB020506EB85053A44059506EB82050A4459
:2045F00007953A4406EB8202089206EB80020992084406EB800A384406EB800518BF6FF085
:20461000010040F0948009F16800024641463046904700233CB10199264611F8010B761E08
:2046300040EA0303F9D1002B08BF01207FD000263CB10299234611F8010B5B1E40EA060633
:20465000F9D1002E08BF022071D001994C465846A04703980299A047009881680498A04756
:204670003648049A594681462846C847012803D14FEA88042E590EB1032058E0BE0028469C
:204690000021324605F08CFF0399049A2846C847012801D12F590FB1042048E0284F294CBF
:2046B000069859463A46A047079803993A46A047069908980A46A04709980899069A2746DF
:2046D000B8470A980699204C2246B84728460021282205F065FF1D4809990A9A81462846A5
:2046F000C8472034284622460146C847079950460A46B84705980021324605F051FF5FFAC2
:2047100088F450462CB95FFA88F10229B8BF012201DB5FFA88F200216B5C445CA34218BF08
:20473000052004D1491C521EC9B2F5D100200BB0BDE8F08F8C4F0020B9DB0010C9DE001004
:2047500084110020F9E00010FC080100C9E60010884F00202DE9F0410446804DA178A86968
:20477000ADF1180D891F00F0F280C91E00F0DD80491E5FD0491E48D0C91E3CD0481E40F08A
:20479000E980287A697AB8B96878002831D0A0880AF0D6FE071C00F0DD80A07A40080FD3F7
:2047B000787968B1E168890A0AD2B91D01AA03F0D5FE0A2804D10321A0880AF0BDFEC9E02F
:2047D000287B022802D1A07A0009F4D3A088797904F1080201F0CAF8A869002800F0BA8010
:2047F0004368002B00F0B68000210A46A0889847B0E00521E0E7002800F0AC804368002B9E
:2048100000F0A88062780221F0E70AF027FA002800F0A080A86950B1076847B120690090B7
:204830006189227B637BE01C3C46A04792E060890121C2E767784FF00008002F66D1A179D2
:20485000490863D3EF69002F60D101A841460E2205F0A6FEA0880AF073FE071C7AD0606947
:2048700040B97879B91D06228DF80A0001A80AF00FF819E06669307C062206F111018DF8DD
:204890000A0001A80AF004F807F10C00B91D062209F0FEFFB81D062206F1110109F0F8FF71
:2048B000307C40F002007871A079C00839BF387900F0FD00387940F002003871A0790009FC
:2048D00039BF387900F0DF00387940F020003871A1799DF81120C1F3800010438DF81100A9
:2048F000080905D39DF8110040F008008DF8110001A8214600F020FB28B92878022102F09A
:204910005DFF404627E0A8694FF0150810B3436803B3A088627801219847B8F1000F19D069
:20493000A86943680321424660E7E078211D002203F014FE0A280DDA410001EB800004F140
:204950000C0225300421C0B202F0ACFA02E0A08806F036F8012006B0BDE8F08174070020FF
:204970002DE9FE4F0E468246307AC10693461F464FF000090CD558460AF0DAFD030000F06E
:20499000E8800A223146504698475FEA00094DD130780C9D0D9CDDF8388002281AD17068A3
:2049B0000178407801EB002189B24FF42052891A012910D9891E3AD0491E14D0FD397AD087
:2049D000491E00F08180491E6DD0491E73D0491E00F09580ABE0002C2AD1F0680178298089
:2049F0000278416887E0002C22D101202880F1680A783A7000217089401C80B20AF094FD7D
:204A1000298860B10278921C51182980418979704289120ABA7041680278F81C6CE0091D1D
:204A3000298004220021781C0AF0F4FA93E0002C66D1F0680688042129803E70320A7A709C
:204A50000DF1020130460AF06FFD040021D0D4F80C80BDF802204FF6FF766B4631460AF069
:204A70005FFD40B9237862683C4802210AF054FD08B9ADF8006098F8000002280BD1D8F84E
:204A900004100222381D09F003FF2888801C288001E0ADF80060BDF80000B870BDF8001002
:204AB000090AF97057E0002C2AD1F068016850460AF074F802E01CBBF068008802212980EA
:204AD0003870000A787046E0F0680AF0A5FA80B2A042B8BF4FF007093DDB844208BF002274
:204AF00005D008EB04028242B4BF4246021B2A8092B2F0680119384609F0CAFE2BE014B18D
:204B10004FF00B0927E0F0680721298002783A7043787B704188B9704288120AFA7001797C
:204B30003971C2887A71C088000AB87113E058460AF0EEFC5FEA00090BD00F980290CDF86B
:204B5000048000942B463A4631465046C847814601E04FF00E094846BDE8FE8FB4090100A4
:204B70002DE9F04F0646880FADF1140DC0F0D7806C4F381D006841688D68CC68486800B17C
:204B90008047B946694F002D08BF002C0DD038461C300368002BFCD00021016005B1A84737
:204BB00004B1A047604809F005F93C4600256049E5616048216040F60A0CA0F800C0458082
:204BD000017B65F303010173AA46C0F804A0417B4FF0010B6BF303014173B268737C558032
:204BF00011888646A1F60201C9B141F21E07C91B15D041F6E677C91B012920D8507E012B77
:204C100065F38200507606D0108B20F47C7040F43470108313E0108B65F30910F9E7507C5D
:204C3000012B65F38200507405D0108A20F47C7040F4347002E0108A65F309101082D6F806
:204C5000088075746046474600E01F467B6813B119888842F9D1C7F804E0797B65F303018C
:204C70007973D9F86C303BB1D9680988C21F8A421ED0801F88421BD0338CDBB1C6F824A051
:204C900006F12000458096F82C1065F3030186F82C1096F82D106BF3030186F82D10CEF89A
:204CB00004009EF80D0065F303008EF80D0001E0C9F808502048036882680192C168406B31
:204CD0000093102220F0784040F0805003901B480291694604F04CFBE0690028FCD0184827
:204CF000C9F8140099F81D00E56178B915480068006801465846884701280DD0787B6BF372
:204D100003007873104EC9F8146005E007F016FE0028FBD00AF066F9E561C4F8008005B08F
:204D3000BDE8F08F68130020010007060010044001010E04241E00204C13005018000021E4
:204D5000612B0000E001001049B60000F0B5754C774E6568401EADF12C0D70D0401E6BA7EA
:204D70006BD0801E52D0401E41D0401E04D0401E36D0401E32D02DE004F1A000FBF7E2FC51
:204D900069491020FEF78CFF6849C5B201AB10206A1EFEF785FF48B90095606802210022F9
:204DB00048A308F0B4FF0DF106000DE00C363046016806AF39608088B8806068002245A3DB
:204DD000022108F0A4FF3846656807F067F90321034607E028460221002214E040A300E0A5
:204DF00041A302212846002208F091FF67E0142009F044F860680221002241A308F087FF65
:204E100060680321052209F0D3FF58E0012504F1A0008DF82950FBF751FF142009F02EF81E
:204E300060680321052209F0C3FF40F205300DF129022946FEF742F965683B46D1E73146E8
:204E50000A6808A802608988818000268DF808609DF824708DF807609DF821108DF80A70BF
:204E70009DF825308DF805109DF822208DF80B309DF820008DF806209DF823108DF8040056
:204E900001AF8DF809102B49786848603A680A6008A807F003F9034601213246284608F0C0
:204EB00036FF606802211CA3324608F030FF012140F205300AAA8DF82810FEF7FFF80BB0C3
:204ED000F0BDC0464E756D20436F6E6E733A20256400C046436F6E6E656374656400C0463C
:204EF0004572726F7200C046436F6E6E6563746564204164766572746973696E6700C04659
:204F100054696D6564204F757400C0464164766572746973696E6700496E697469616C697D
:204F30007A65640008020020F17F0110097F011010090020AF0500202DE9F04F734CDFF8E2
:204F5000C8A1E56988468146ADF1140D002D4ED1B9F1000F00F09680B8F1000F00F0928071
:204F700008F068FE06460A2E267422DAD8F81470002F3DD0700010216A4600EB8600233004
:204F9000C0B209F077FA90B950460778FF211022684609F0A3FB50B93FB999F80600494609
:204FB00000F001000AF0B0FA01E00120A074E5691DE004F1E60B0A2700265846FF210622C8
:204FD00009F08CFB88B97F1E0BF10E0B06F10106F3D1607C002804BF0A20207452D094F859
:204FF0003660304601F054FAE569267400E0267C0A2E47DA002D35D170000E214A4600EB46
:2050100086002030C0B201F04DFF207C07F030F96846FF21102205F0C3FA207C10216A4610
:205030007030C0B201F03EFF217C0E220801A0EB410000194946E63009F02AFCD8F814209D
:205050006AB15046007840B9107C02F11101002300F001000AF054FA01E00120A074C4F85F
:205070001C804CE0AA68002A3ED12A69002A2FD16A690ABBEA683AB9A07B08B108F0CAF9E4
:2050900009F0E9F901203BE07000102100EB86002430C0B201F006FFE769217CFA68480084
:2050B00000EB8100103225300421C0B201F0FAFEE1690020C86022E07000102100EB8600B7
:2050D0002330C0B201F0EEFEE1690020486116E070001C2100EB86002230C0B201F0E2FE62
:2050F000E169002008610AE070001C2100EB86002130C0B201F0D6FEE169002088600020CB
:2051100005B0BDE8F08FC0465A4F0020740700207CB56D4D044668680E4628B94FF0004083
:20513000002106F047FB686000213CA30A4608F0EEFD20463DA3801E08D0801E61D0401E22
:205150004CD0401E37D0401E22D00EE06868012E05D000210A4608F0DAFD37A357E000213A
:205170000A4608F0D4FD39A351E0686800210A4608F0CDFD6868022100223AA308F0C7FD48
:2051900001208DF803009DF803000028FBD17CBD686800210A4608F0BAFD6868022100228C
:2051B00036A308F0B4FD01208DF802009DF802000028FBD17CBD686800210A4608F0A7FD14
:2051D00068680221002232A308F0A1FD01208DF801009DF801000028FBD17CBD68680021E4
:2051F0000A4608F094FD6868022100222DA308F08EFD01208DF800009DF800000028FBD12F
:205210007CBD686800210A4608F081FD29A368680221002208F07BFD7CBDC0463E3E3E53F1
:205230005441434B20415353455254002A2A2A4552524F522A2A2A003E3E20494E544552A5
:205250004E414C204552524F522100C03E3E20494E5445524E414C204657204552524F5278
:205270002100C0463E3E2044454641554C54205350494E4C4F434B2100C046C03E3E2057F9
:20529000524F4E47204150492043414C4C2100C03E3E204943414C4C2054494D454F555469
:2052B0002100C0463E3E204943414C4C2041424F525421003E3E204F5554204F46204D4502
:2052D0004D4F52592100C046080200202DE9F04FADF11C0D0190049300280392109D0291E5
:2052F000119C059500F0BC80081C00F0B980101C00F0B680181C00F0B380281C00F0B080D1
:20531000002C00F0B280206A002800F0A9805A4D676A281D0068002F00F0A280A16A0AF0F9
:20533000EBF840B2071C08BF6FF0020700F0948020786288216A84F82C7000EB8000121878
:20535000143290B288474B49086030B9284640680AF0CEF84FF0FF377EE00846B4F802B0AC
:205370006688277894F800900568204606F046FE2078AB44C01C8010CBF800002078B91947
:20539000491901F1040AC01C8010CAF80000207806EB4703591901F10808C01C8010C8F8FA
:2053B0000000217809EB49094B469A19521902F10C09C91C8910C9F800102178D8198019D5
:2053D000401900F11005C91C88100199286022780BF1040003F0CCFF227802990AF1040033
:2053F00003F0C6FF2278039908F1040003F0C0FF2378204651464246FFF7A2F8071C14D148
:2054100000955846514642464B460AF06DF880462278049809F1040103F0AAFF227805986C
:20543000291D03F0A5FF4FFA88F7124821786288006801EB81015218002105F0B1F80D4E80
:20545000606A0146306888470B4840680AF050F8F8B2992808BF002784F82C70384606E0B2
:205470001CB16FF0010084F82C006FF0010007B0BDE8F08F884F00207C1100202DE9F04F13
:20549000ADF1240D079001F035F95F48007808F07FFD5E4D0024012806D90C3804D0401E97
:2054B0000ED0401E09D006E009F032F9022804BF01210C1C06D0696805E005211F2401E0B0
:2054D000032107246960524A1068C0F38150012806D152F80C0C0127020E07FA02F0044338
:2054F00009F084FB05F1440AFF2253464018401E471C28607F1E03F8012BFBD1079A1268DA
:20551000002602F0FF03FE2B1DD0DDF81CC0964633460EF0FF07FF2F0ED0B84205D3B94268
:2055300003D80122BA40144201D0022069E016430EF0FF020AF802305CF804EF5B1C0EF089
:20555000FF07FE2FE7D1092002F054FF07980121A86005F1280008F0A7FA00274FF0010BF0
:20557000B9462846804600F198050BFA07F0044216D1064204BF07F0FF0141F4C04104D025
:205590001AF80700079951F82010224801F0F6FAF8B24FF0FF3108F01FFDC5F8009001E023
:2055B00004202860D8F800007F1C2D1D8742DCD904A809F0FBFA184C184A2078102104AB24
:2055D000059008F10C0007F099FA684609F01EFBCDF80C906A4660681149029008F16400B5
:2055F00007F024FB0F4951F80D0C20F4F85040F4005041F80D0C0C4FC1F8FFBF4846C7F87A
:2056100000B009B0BDE8F08FCD1E0020480A0020B43F0050007FC767200D010031E500003C
:205630000DC900000D3009400800094061480178002900D170472DE9F843491E032984B0C2
:2056500004D9891F012940F2B180A9E05A4CDFF86C912068DFF8688103685A4E03F10805C9
:20567000062205F1080102A809F012F90622A91C684609F00DF92878C1091D2700F00F02FC
:20569000032AC0F3801537D16079C0F3800081421ED12169062202A808F012FE00287AD0E9
:2056B0006946284609F0B8FF002874D03146684609F0AEFFFF286ED04743D8F80000807A1D
:2056D000F519002818BF02280AD0012818BF032861D1F25D691C484609F002FF10285AD08E
:2056F0006B46EA1D2946484609F0F6FE06226946E81D09F0CDF84EE000F00F00052855D1DE
:205710006079C0F38000814245D12169062202A808F0D6FD00283ED06946284609F07CFFA6
:20573000002838D03146684609F072FFFF2832D04743D8F80000807AF519002818BF0128E7
:205750000AD0022818BF032825D1F25D691C484609F0C6FE10281ED040F2024007F084FA0F
:205770006B46EA1D2946484609F0B6FE06226946E81D09F08DF81448144A41F2044141806A
:2057900041834186124801801249134811600121007802F013F821680A680020107105E054
:2057B000002008F01FFF862009F00EFF05B0BDE8F08300BF6F4F0020F44B0020CC470020FB
:2057D000104F0020AC450020204A0020204F0020504F0020595501106E4F00202DE9F84364
:2057F000614C5A4D5A4EDFF870815E4F94F8E4100846401E0B2864D8DFE800F07B2C4306E6
:205810002343062343067664042907D001220A2945F8212C14BF0220032004E0202045F869
:20583000210C0120024684F8E200002045F8390C0827C5F8FF7FC5F8F37F45F8392CBDE8E2
:20585000F883052914BF09200620002784F8E400376075E094F8E170383D0120002FC5F89B
:205870001B0004BF0620002102D00021F160032084F8E400032045F8010C3160306880080E
:205890005ED294F8E4103348012703290ED00068456800216022052300914046A84794F829
:2058B000E400062814BF0A200720CFE700684568002160220523022000904046A8470420C1
:2058D000C4E7FEE72548264F0026012506600E203D6002F065FB022007F000FD84F8E450B1
:2058F00084F8E360BDE8F883002038600C25786024E04FF08059D9F8A001016820208847F2
:205910002C3D0F2045F8010C41F61D56C5F80360D9F8A401466800214FF4C07207230225C0
:2059300040460095B047D9F8A401C66800214FF4C07207234046B0470120386084F8E450FB
:2059500004F1780009F038FBBDE8F88339400C4038600C40A401001000A00C402C500C406C
:2059700004800C4034600C405C0B00202DE9F04F88468246ADF1AC0D299209F0E1FD5C4C64
:20599000E67894F80BB0A57A94F80C90071C00F0AB8068460021A42204F002FE2801279A5A
:2059B00055498DF8046005F0030300F4807605F00405ADF800A0B9F1020F01EA020143EA52
:2059D00001024C4B8DF8A0B046EA020100F4C06603EA010246EA020045EA00054FF0000066
:2059F000279508BF01208DF8370009F071FD412809DB207B00280CBF002008209DF899106F
:205A100008438DF89900607B002804BF00208DF8380017D001208DF8380004F186012022E7
:205A30000DF1390008F034FF0DF1590004F1A601202208F02DFF0DF1790004F1C601202226
:205A500008F026FFA07940B18DF8260004F1500110220DF1270008F01BFF66793EB104F1F2
:205A70006000B91D0622054608F02AFC68B92079002804BF00208DF8050015D08DF8050091
:205A900004F140010DF106000BE08DF805600DF1060005F11601102208F0FAFE0DF11600A0
:205AB000A91D102208F0F4FEE07930B1B8F1000F03D0279941F002012791002100B101218F
:205AD000A7789DF89900002F41EA00018DF899100CBF002004209DF89910084329998DF801
:205AF0009900684609F0F0FC2BB0BDE8F08FC04674070020FBF9FFFFFCFEFFFF70B5484C27
:205B1000484B2568186855F8183F00224FF0FF3198474548454A416B454C8868454D41792C
:205B30001170002609F0CCFC434809F0C5FC09F0BFFC4248026800215171A02301680722C8
:205B5000CB804A72032103681972002201684A7700230268D3760021036883F85C1001225C
:205B700001680A770123026882F85D300021006880F85E100EE06068F1B24FF4C0725143C5
:205B900042185379012B04D1F0B208F081FF09F08BFC761C2978F0B28842ECD309F080FC61
:205BB0002748284A0178284C117007F07BF82748D02130220023017042708370C37003718A
:205BD00043718371C37109F067FC2149214B00200870002220491A700120204B08701A706C
:205BF0001F49204B08701A701B201F491F4B0A701A804FF4A4721E491E4B08801A80FB2039
:205C10001D491E4A088040F648001D491080FB230B80208009F03CFC1A490020087070BD08
:205C3000F04E0020EC4E0020A40D0100714F0020684E00207B4F0020CC470020104F002098
:205C50006D4F00207A4F00204E4F0020901E0020734F0020744F0020754F0020764F002056
:205C7000774F0020784F0020794F0020524F0020444F0020464F0020484F00204A4F0020C6
:205C90004C4F00206F4F00205A480178042900D870472DE9F84F891F2FD0491E012900F2FD
:205CB0009E80DFF854A19AF80200FF2825D008F0EFFE83460BF16C07786809F0E5FB80469E
:205CD00098F80400032818D1D8F80800047814F0030404D17868BDE8F24F09F0D1BB4578D0
:205CF000032C00F102090BF20F160BD035B1387820B93D2171700120307078E03F490A789B
:205D1000012A74D09BF8941059B32D1FEDB24B462A462146584609F0AFFB40B93D207070F7
:205D3000012131703648BDE8F24F09F0A1BB35480168884700904FF4C0709BF80620DAF894
:205D5000041042438818002180F839110BF59A7001688079490805F015FB2B4900980A68D7
:205D700090470020032CC8F8080016D0274841690878820707D5C0074CBF032000204019D3
:205D900019F8000000E08120387223469AF802002A46494600F094F918E099F80000192874
:205DB00003D21B4A115C8D4205D0B0700721584609F0E6FB07E00F480178082903D049467E
:205DD0005846FDF731FD484606F078FA786809F057FB41465846BDE8F44F09F045BB0020AC
:205DF00008F000FCBDE8F24F862009F0EDBBBDE8F18F00BF6F4F0020684E0020794F0020F2
:205E1000AC450020780C00207C0C0020A40D0100DC0D01002DE9FF4104466668A7680D46A9
:205E300009F0D2F83178012903D1FAF76FFC00208EE001213170FAF769FC28787070687885
:205E5000B07068687060A868B060E868F06028693061287D3075687D7075A87DB075A86921
:205E7000B061287F3077687F7077A87F4FF0000843461D4686F82851B07786F82951C6F8B7
:205E90002080336375627563B562B56386F82C5086F82D50786802F0ADFA204603F050FBCC
:205EB000204603F099FB60B9386808F059F9786802F076F809F088F83570FAF727FC2C46FE
:205ED00045E0684608F072FE0094387B224A0190B9686B4606F17C0006F010FE684608F044
:205EF00095FE00941D4938696A46029006F1980006F09CFEB07830B906F1CC00294607F0C9
:205F1000D3FD17483061707830B906F1E800294607F0CAFD1348F060684608F0D9FF019515
:205F30008DF800501049029406F582700A226B4606F014F8B969FA6906F13C0008F002FE11
:205F50000A4A06F168000421234607F047FF20460090BDE8FF81C0462162000009B700004F
:205F700049EF000041EF000015C500002DED0000F0B5514C20780D46E90BADF11C0DC90301
:205F900072D1A80860D2E069216A6A080ED2E80828BF85F0040580F08C80680904D304F099
:205FB00043F985F0100584E0002083E0868861B904F11600414A00904FF6FF7102230120DB
:205FD00009F04EFA0146216221B304A800900027019702230293FF220392E28A30460DF187
:205FF0001203FEF7BDFC58B99DF813009DF81220216A12EB002204D04989304606F01CFC7A
:20601000216AE28A08463B464FF6FF7109F088FA01462162A069002918BF85F001051AD141
:2060300068B143685BB1E0698088012100229847A069E7694368B88803210022984708F0AB
:20605000C3FA85F0010534E000200146FEF774FF18B185F00205012102E0022185F002052D
:20607000207801F0ABFB24E003F0EAFD071C1ED038780126B03811D0401E02D01F3808D0F3
:2060900011E0387978B97888F9883A8906F0D4FB0AE03846FEF75EFB064604E0397907F184
:2060B0000800FAF73FFB16B1384608F019F985F40045A8B207B0F0BD74070020AE0901007F
:2060D0002DE9FC4706460C4615469A46C0B208F0DFFC8146F0B208F0A9FD0646494F3079A5
:2060F000DFF82481012802D0022843D082E0BAF1020F0AD100207080308002223271B06844
:2061100006F0DCF80020B06037E0308871882A1891420BDA00207080308002223271B06814
:2061300006F0CCF80020B0608B2061E0B3682A462146184408F0ACFB30882D183580ADB27B
:206150007288954256D199F87410802917BF81297F2198F80000091A49B200915346B16868
:20617000B878D2B209F078F9002070803080022232713FE0BAF1020F3CD1042DB8BF8C202E
:2061900036DB20786178001D40EA01201F49708083B20A789A4238BF8A2029D381B2A9425F
:2061B00038BF8B2024D380B209F052F9B060F0B12A46214608F06CFB7288954211D199F895
:2061D0007410802917BF81297F2198F80000091A49B200910223B168B878D2B209F03CF903
:2061F00008E030882D1835800121317102E0812004F0DAF824B12046BDE8F64706F05EB8BF
:20621000BDE8F387684E0020704F00206B4F00202DE9F84F8046D8F808603068D8F80450A9
:20623000076CDFF830B14764AB6B6A6C286C17F4F06F1946A0EB020934D1F8091ED2780922
:2062500074D3B1B196F821205846801D845C601E814294BF1C1C641E4046214607F09EFBD0
:20627000A86B001BA86361D105F19800012108F0C5FE4046494607F051FE57E00029F8D0B5
:20629000404607F08BFB95F82D10A86311B900284CD101E00020A86305F19800012108F053
:2062B000ADFE43E0F80A20D24FF0000A544602E0AB6B5B1EAB6393B14046012107F06EFB5E
:2062D0003068446814F00F04C0F804A0F0D0286B401E2863686B401E6863A86BE8B905F115
:2062F0009800012108F08AFE13E0306844680022202904F00F044260CCBF4FF0200A9A4635
:206310004046514607F04AFBCAF120008145C8BF81464946404607F001FEEC77404605F03C
:20633000F3FF726A12B1404621469047B8090FD3A96A69B10F46404607F047FBA86238B919
:2063500096F820205946895C4046C91905F0F6FEBDE8F88FC40801002DE9FC4705466E6817
:20637000D5F8088037780FB1B76B1FB14FF0FF30BDE8FC8731630024F477171C74631BD0A9
:2063900006F13C0908F020FE82466946484606F0D4FB00281ED45046FAF7B8F99DF80000EA
:2063B000316B0870306B736B7F1E00F10100306303F101007063E5D17078726B316B012816
:2063D000A1EB0201316303D1F36828469847726B144659E0B763D8F80010086B40F400708D
:2063F0000863D8F80010886B40F4FA6088635046FAF78CF906F5947007F0B2FF707806F540
:20641000947768BB08F0E0FD96F82D1069B1716B59B1B16B49B1B463FAF778F906F5947010
:2064300007F08EFF706BBDE8FC87FAF76FF9716806F1E805284608F08EFB0028F2D0B463BF
:206450002846214608F087FB0028EBD0384607F077FF1027716B306BF777401A3063E1E73E
:2064700008F0B2FD96F82D1061B1716B51B1B16B41B1B463FAF74AF906F19800012108F0A8
:20649000BDFD01E0FAF742F92046BDE8FC8770472DE9F041494E0546307CADF1500DA84226
:2064B00009D13078012107F01DF83078022107F019F808F089F86C0004EB85040E210FAA04
:2064D00004F1200004F120075FFA80F8F8B207F0D1FF00286DD106200DF13B0111F8012F3A
:2064F000FF2A02D1401EF9D163E06846FF211C2204F056F807A8FF21102204F051F804F1A4
:20651000230010210BAAC0B2074607F0B3FFB0B910200DF12B0111F8012FFF2A02D1401EA4
:20653000F9D10CE02648007838B99DF842000FA900F0010008F0E8FF01E00120B0740FA882
:20655000FF210E2204F02CF840460E210FAA00F0A9FC06461C216A4604F12100C0B200F00F
:20657000A1FC1C216A46064304F12200C0B200F099FC10216A460643384600F093FC1021D2
:206590006A46064304F12400C0B200F08BFC04F1250704216A460643F8B200F083FC7035F3
:2065B000102107AA40EA0604E8B200F07BFC204300E0002014B0BDE8F081C04674070020D6
:2065D0005A4F00202DE9FE4F00281C4600908B46019200F08180BBF1000F7DD0101C7BD091
:2065F000002C7ED0206A002876D0414D676A281D0068002F70D0A16A08F07EFF40B2071C09
:2066100008BF6FF0020063D020786288216A84F82C7000EB400012180C3290B288473349CA
:20663000086030B92846406808F062FF4FF0FF304EE088466588B4F8029094F800A0D8F8F9
:206650000060204605F0DAFC20780AEB0907AD19BF1909EB4A01C01C80108E1928602078EC
:2066700000993F1DC01C8010386020780836C01C801030602278281D02F07AFE28463A4608
:206690003346014608F0E0FE2278391D8146584602F06EFE22780198311D02F069FE21782E
:2066B0006288D8F8000001EB41015218002103F077FF606A0146D8F8000088470C48406842
:2066D00008F016FF4FFA89F0C1B2992908BF002084F82C00BDE8FE8F1CB16FF0010084F83C
:2066F0002C006FF00100BDE8FE8FC046884F00207C1100202DE9FF47484C94F8E700002897
:2067100076D13E4E01273C48F57C84F8E770736884F8E6500068C4F81031C0F3801084F8F5
:20673000E800684608F0D4FB002504F10C0001956B468DF80050324902952A4605F00EFC29
:20675000304904F130006B462A4605F007FC2E4904F154006B4681462A4605F0FFFBB168C2
:2067700038468847DFF8B0802848327D08F104030078284E1868C0F3815A22B1BAF1030F0A
:2067900004D184F8E170BAF1030F17D0BAF1020F14D0BAF1010F0ED0022006F09BFF1C4854
